:1000000006C12AC129C128C127C126C125C124C1D1
:1000100023C122C121C11AC31FC11EC11DC11CC1E0
:100020004352432020202020202020202020202058
:1000300020203A20307800706F776572446F776EB9
:100040004475726174696F6E203A20007764745051
:1000500072657363616C65722020202020203A2035
:10006000006932634164647265737320202020202C
:100070002020203A203078006669726D77617265C1
:1000800056657273696F6E2020203A2030780073B5
:10009000697A654F6653657474696E6773202020B2
:1000A000203A2000454550524F4D207365747469C5
:1000B0006E677320617265206E6F206C6F6E67656E
:1000C000722076616C69642120536F6D6574686974
:1000D0006E6720626164206D757374206861766557
:1000E0002068617070656E65642E2E2E0045455047
:1000F000524F4D2073657474696E67732061726529
:100100002076616C69643A00496E6372656D656E54
:1001100074696E6720706F776572446F776E44758F
:10012000726174696F6E00454550524F4D20736582
:100130007474696E6773206172652076616C69649E
:100140003A00454550524F4D2073657474696E678F
:100150007320617265207374696C6C204E4F54205B
:1001600076616C69642120536F6D657468696E6790
:1001700020626164206D7573742068617665206803
:10018000617070656E65642E2E2E00454550524F8D
:100190004D2073657474696E677320617265207693
:1001A000616C69643A00454550524F4D2073657447
:1001B00074696E67732077696C6C20626520696E64
:1001C000697469616C697A656400454550524F4DA8
:1001D0002073657474696E677320617265204E4F79
:1001E000542076616C69642100736DC3B46C205037
:1001F0006F77657220426F617264204141412045F2
:100200004550524F4D2054657374000076031124FD
:100210001FBECFE5D1E0DEBFCDBF20E0A0E7B0E05C
:1002200001C01D92AD39B207E1F710E0A0E6B0E0E1
:10023000ECEAF8E002C005900D92A037B107D9F7BB
:1002400011E0C7E0D1E003C02197FE0127D3C630FB
:10025000D107D1F773D228C3D3CECF93DF9300D089
:100260001F92CDB7DEB71B828B818A3F90F41A8232
:10027000198289819A818A3C910538F4000089812C
:100280009A8101969A838983F4CF8B818F5F8B83C8
:10029000EBCF0F900F900F90DF91CF910895382FF3
:1002A000E6E9F0E090E08FEF41E3931769F02191E8
:1002B000822728E087FF06C0880F84272150D1F7C6
:1002C0009F5FF3CF880FFACF089508952FB7F89462
:1002D000FC01458556853AE06095089420F47BB38F
:1002E00075237BBB04C07BB3742B7BBB0000F8D1B0
:1002F000F7D1F6D1F5D166953A9581F72FBF81E018
:1003000090E00895CF93DF936DE084E890E0DEDF26
:10031000EC016AE084E890E0D9DF8C0F9D1FDF914B
:10032000CF9108950F931F93CF93DF938C01D0E06B
:10033000C0E0F801EC0FFD1F6491662339F084E8FA
:1003400090E0C4DF892B11F02196F3CFCE01DF912D
:10035000CF911F910F910895CF93DF93E3DFEC01CD
:10036000D1DF8C0F9D1FDF91CF910895DC011F9687
:10037000ED91FC9120893189828993892817390769
:1003800079F0A289B389AE0FBF1F8C91228933897E
:100390002F5F3F4F2F703327338B228B90E00895D0
:1003A0008FEF9FEF0895DC011F96ED91FC9120895E
:1003B0003189828993892817390739F0828993898D
:1003C000E80FF91F808190E008958FEF9FEF089567
:1003D000DC011F96ED91FC918089918922893389F6
:1003E000821B930B8F7099270895CF92DF92EF9223
:1003F000FF920F931F93CF93DF936C01EB017B016F
:10040000E40EF51E10E000E0CE15DF0561F0699105
:10041000D601ED91FC910190F081E02DC601099586
:10042000080F191FF1CFC801DF91CF911F910F91D4
:10043000FF90EF90DF90CF900895CF93DF93EB0183
:10044000EED18883CE01DF91CF910895CF92DF92D4
:10045000EF92FF920F931F93CF93DF9300D0CDB70E
:10046000DEB71982BE016F5F7F4F90E080E0E5DF6D
:1004700009811A82BE016E5F7F4F81E090E0DDDF6F
:100480008A81803119F411E0073009F010E086E923
:10049000C82E80E0D82EF12CE12CC701C0D1F60186
:1004A00081936F01FFEFEF1AFF0A87E0E816F1046E
:1004B000A1F7809196008150F2DE90919C00891303
:1004C00010E0812F0F900F90DF91CF911F910F912E
:1004D000FF90EF90DF90CF9008958F929F92AF9210
:1004E000BF92EF92FF920F931F93CF93DF93CDB7FD
:1004F000DEB7A1970FB6F894DEBF0FBECDBF162FA3
:10050000042F19A2423008F40AE07E0121E2E20E33
:10051000F11C802E912CB12CA12C612FA5019401EE
:100520009BD1802F622F8FD1181B1A303CF5105DA4
:10053000F70112937F01122F732FCA01232B242B53
:10054000252B59F701900020E9F73197AF014E199B
:100550005F09B70184E890E048DFA1960FB6F894F0
:10056000DEBF0FBECDBFDF91CF911F910F91FF90E6
:10057000EF90BF90AF909F908F900895195CD8CF67
:10058000CF93DF93462F682F70E090E080E0A5DFE7
:10059000EC01B8DE8C0F9D1FDF91CF910895FF9283
:1005A0000F931F93CF93DF9387E08093960086E0AD
:1005B00076DE80939C0006E910E0D0E0C0E0F80110
:1005C000F1908F01CE012BD1F81619F06F2DCE01CD
:1005D0002DD12196C730D10591F7DF91CF911F9191
:1005E0000F91FF900895CF93DF938FE890E09ADE0C
:1005F000C6E9D0E06AE070E08881C2DF88E790E079
:1006000091DE60E170E08981BBDF81E690E08ADE07
:1006100060E170E08A81B4DF8CE490E083DE6AE020
:1006200070E08B81ADDF87E390E07CDE6C817D81C3
:1006300090E080E04AE051DF65DE80E290E072DE2B
:1006400060E170E08E81DF91CF919ACF1F920F927F
:100650000FB60F9211242F933F934F935F937F9385
:100660008F939F93AF93BF93EF93FF93409190002D
:1006700020E038E035D034D033D032D031D0889437
:1006800079B3742309F0089427953A9509F0F3CFCC
:1006900027D026D0E0919300F09194008089918931
:1006A00001968F709927428953898417950739F0ED
:1006B000A089B189AE0FBF1F2C93918B808B449A78
:1006C000FF91EF91BF91AF919F918F917F915F913A
:1006D0004F913F912F910F900FBE0F901F90189543
:1006E00080919500982F9A95F1F70895E4E8F0E04D
:1006F0001382128288EE93E0A0E0B0E084839583B9
:10070000A683B78384E690E09183808380E790E0BE
:10071000908B878780E2848780E185879FEE96872C
:10072000118AE6E9F0E01082818380E5828386E029
:10073000838381E090E095838483089520E826BD3B
:1007400091E096BD83E080BF83BF78948FBD8EBD5E
:1007500085E886B926BD96BD8FE1809395004398C4
:10076000469A4798419A409A8AB320919000922FD6
:10077000909598239ABB8BB3822B8BBB9AB3209115
:100780009100922B9ABB8BB3822B8BBB449A439ADA
:1007900089EE91E0E1DD5ADE8823F9F087E291E00D
:1007A000DBDD21DF88E091E0D7DD80919A00909138
:1007B0009B00019690939B0080939A00F0DE46DEAA
:1007C000882339F08DEE90E0C7DD0DDF46DD9ADD40
:1007D000FDCF84EA90E0C0DDF9CF8AEC91E0BCDD8A
:1007E00086EA91E0B9DD1092960080E1809397004F
:1007F00080E58093980086E08093990081E090E006
:1008000090939B0080939A00CADE27DD1FDE882329
:1008100019F08BE891E0D8CF82E491E0DCCFE19948
:10082000FECF8EBBE09A99278DB30895262FE199CC
:10083000FECF1CBA8EBB2DBB0FB6F894E29AE19A9C
:100840000FBE01960895002480FD060E660F11F07C
:100850008695D1F7802D0895A1E21A2EAA1BBB1B05
:10086000FD010DC0AA1FBB1FEE1FFF1FA217B3077C
:10087000E407F50720F0A21BB30BE40BF50B661F92
:10088000771F881F991F1A9469F760957095809556
:1008900090959B01AC01BD01CF010895EE0FFF1FA4
:0C08A0000590F491E02D0994F894FFCF2E
:1008AC00000000006601F501E801B601D301650105
:00000001FF
