:1000000010C034C033C032C031C030C02FC02EC089
:100010002DC02CC0B0C0F9C029C028C027C026C040
:10002000890111241FBECFE5D1E0DEBFCDBF20E0A6
:10003000A0E7B0E001C01D92AF39B207E1F710E0D0
:10004000A0E6B0E0EAE5F3E002C005900D92A0372B
:10005000B107D9F710E0C1E1D0E003C02197FE015C
:1000600074D1C031D107D1F720D175C1C9CFCF929A
:10007000DF92EF92FF920F931F93CF93DF936C0168
:10008000EB017B01E40EF51E10E000E0CE15DF056C
:1000900061F06991D601ED91FC910190F081E02D24
:1000A000C6010995080F191FF1CFC801DF91CF9143
:1000B0001F910F91FF90EF90DF90CF9008950895DA
:1000C0002FB7F894FC01458556853AE06095089471
:1000D00020F47BB375237BBB04C07BB3742B7BBB49
:1000E0000000DDD0DCD0DBD0DAD066953A9581F720
:1000F0002FBF81E090E00895DC011F96ED91FC9107
:1001000020893189828993892817390779F0A28952
:10011000B389AE0FBF1F8C91228933892F5F3F4F68
:100120002F703327338B228B90E008958FEF9FEF52
:100130000895DC011F96ED91FC9120893189828917
:1001400093892817390739F082899389E80FF91FB5
:10015000808190E008958FEF9FEF0895DC011F9656
:10016000ED91FC918089918922893389821B930BBF
:100170008F70992708951F920F920FB60F92112436
:100180002F933F938F939F93AF93BF9380919B0047
:1001900090919C00A0919D00B0919E0030919A009A
:1001A00026E0230F2D3768F129E8230F0396A11DC0
:1001B000B11D20939A0080939B0090939C00A09384
:1001C0009D00B0939E008091960090919700A09121
:1001D0009800B09199000196A11DB11D80939600E1
:1001E00090939700A0939800B0939900BF91AF911E
:1001F0009F918F913F912F910F900FBE0F901F9065
:1002000018950296A11DB11DD4CF1F920F920FB663
:100210000F9211242F933F934F935F937F938F936C
:100220009F93AF93BF93EF93FF934091900020E093
:1002300038E035D034D033D032D031D0889479B34F
:10024000742309F0089427953A9509F0F3CF27D045
:1002500026D0E0919300F0919400808991890196D5
:100260008F709927428953898417950739F0A0899F
:10027000B189AE0FBF1F2C93918B808B449AFF9155
:10028000EF91BF91AF919F918F917F915F914F912E
:100290003F912F910F900FBE0F901F901895809156
:1002A0009500982F9A95F1F7089583E080BF83BF5A
:1002B000789499B7916099BF8FBD8EBD86E886B955
:1002C00082E0809395004398469A4798419A409AD5
:1002D0008AB320919000922F909598239ABB8BB36C
:1002E000822B8BBB9AB320919100922B9ABB8BB33C
:1002F000822B8BBB449A439A84E890E02FDF892BB2
:10030000D9F384E890E0F8DE682F84E890E0D8DE46
:10031000F3CFE4E8F0E01382128288EE93E0A0E0ED
:10032000B0E084839583A683B78384E690E09183CD
:10033000808380E790E0908B878780E2848780E1EC
:1003400085878FEE8687118A0895EE0FFF1F05902F
:0A035000F491E02D0994F894FFCF1A
:10035A000000000060003700AE007C0099005F00DA
:00000001FF
