:1000000010C034C033C032C031C030C02FC02EC089
:100010002DC02CC0DEC027C129C028C027C026C0E3
:10002000C50111241FBECFE5D1E0DEBFCDBF20E06A
:10003000AAE9B0E001C01D92A93CB207E1F710E0C7
:10004000A0E6B0E0E2EDF3E002C005900D92AA391F
:10005000B107D9F710E0C1E1D0E003C02197FE015C
:10006000B0D1C031D107D1F74ED1B1C1C9CF0895B8
:100070002FB7F894FC01458556853AE060950894C1
:1000800020F47BB375237BBB04C07BB3742B7BBB99
:10009000000033D132D131D130D166953A9581F714
:1000A0002FBF81E090E00895DC011F96ED91FC9157
:1000B00020893189828993892817390779F0A289A3
:1000C000B389AE0FBF1F8C91228933892F5F3F4FB9
:1000D0002F703327338B228B90E008958FEF9FEFA3
:1000E0000895DC011F96ED91FC9120893189828968
:1000F00093892817390739F082899389E80FF91F06
:10010000808190E008958FEF9FEF0895DC011F96A6
:10011000ED91FC918089918922893389821B930B0F
:100120008F7099270895CF92DF92EF92FF920F93ED
:100130001F93CF93DF936C01EB017B01E40EF51E5F
:1001400010E000E0CE15DF0561F06991D601ED9178
:10015000FC910190F081E02DC6010995080F191F4F
:10016000F1CFC801DF91CF911F910F91FF90EF90D8
:10017000DF90CF900895811105C08FB7F894DB9878
:100180008FBF08958FB7F894DB9AFACF0F931F9320
:10019000CF93DF93FC0101900020E9F73197AF0185
:1001A000481B590BBC0187EB90E0BDDFEC016DE013
:1001B00087EB90E05DDF8C016AE087EB90E058DF31
:1001C000C00FD11F8C0F9D1FDF91CF911F910F91F9
:1001D00008951F920F920FB60F9211242F933F9301
:1001E0008F939F93AF93BF938091B3009091B4008E
:1001F000A091B500B091B6003091B20026E0230F77
:100200002D3768F129E8230F0396A11DB11D209316
:10021000B2008093B3009093B400A093B500B09364
:10022000B6008091AE009091AF00A091B000B09167
:10023000B1000196A11DB11D8093AE009093AF0057
:10024000A093B000B093B100BF91AF919F918F91F7
:100250003F912F910F900FBE0F901F90189502960F
:10026000A11DB11DD4CF1F920F920FB60F92112472
:100270002F933F934F935F937F938F939F93AF936E
:10028000BF93EF93FF934091C30020E038E035D057
:1002900034D033D032D031D0889479B3742309F07C
:1002A000089427953A9509F0F3CF27D026D0E0910E
:1002B000C600F091C7008089918901968F709927B7
:1002C000428953898417950739F0A089B189AE0F07
:1002D000BF1F2C93918B808B449AFF91EF91BF911C
:1002E000AF919F918F917F915F914F913F912F910E
:1002F0000F900FBE0F901F9018958091C800982FF7
:100300009A95F1F7089583E080BF83BF789499B7F9
:10031000916099BF8FBD8EBD86E886B982E08093DB
:10032000C8004398469A4798419A409A8AB32091C8
:10033000C300922F909598239ABB8BB3822B8BBBD3
:100340009AB32091C400922B9ABB8BB3822B8BBBA8
:10035000449A439A8FB7F894D39A8FBF80E00BDF0B
:1003600087EB90E0D3DE892BD9F387EB90E09CDE1E
:10037000803321F480E790E009DFF0CF813381F70B
:1003800085E890E003DF81E0EACFE7EBF0E013825D
:10039000128288EE93E0A0E0B0E084839583A68388
:1003A000B78384E690E0918380838AE990E0908B24
:1003B000878780E2848780E185878FEE8687118A30
:1003C0000895EE0FFF1F0590F491E02D0994F89425
:0203D000FFCF5D
:1003D20000000000380093008600540071003700CE
:1003E200545053363132303020697320646973615E
:1003F200626C656400545053363132303020697378
:0A04020020656E61626C6564000005
:00000001FF
