:1000000010C029C028C027C0D4C225C024C023C026
:1000100022C021C020C01FC01EC01DC083C2CBC1D2
:10002000C70411241FBECFE5D1E0DEBFCDBF20E065
:10003000A0E6B0E001C01D92A23BB207E1F710E0DC
:10004000C1E1D0E003C02197FE01C8D4C031D1077F
:10005000D1F7E9D2C9C4D4CF8091B100882339F057
:100060002091B00082131CC08FEF9FEF08959091F4
:10007000AF008091AE00891B8F70B1F39091AF00FB
:100080008091AE009817E1F3E091AF00EF5FEF7061
:10009000E093AF00F0E0E05AFF4F808190E00895D8
:1000A000E22FF0E0E05AFF4F808190E02F5F209335
:1000B000B00008959091AD009923A1F09091B10006
:1000C000903240F59091B000E92FF0E0E05AFF4FF8
:1000D000808381E0890F8093B0008093B10081E03C
:1000E00090E008952091AC009091AB002F5F921B9F
:1000F0009F7081F09091AC009F5F9F702091AB004A
:100100009217E1F3E92FF0E0E059FF4F80839093DD
:10011000AC00E5CF90E080E008950F931F93CF935C
:10012000DF93EC018881C6DF8C018981C3DF800FFA
:10013000911FDF91CF911F910F910895482F30E0CB
:1001400020E08FEF51E3F901E656FF4F90818927B8
:1001500098E087FF09C0880F85279150D1F72F5F5E
:100160003F4F241780F30895880FF7CFCF93DF9385
:1001700000D01F92CDB7DEB71B828B81811112C0D8
:100180001A82198289819A818A3C910538F400008B
:1001900089819A8101969A838983F4CF8B818F5FBD
:1001A0008B83EBCF0F900F900F90DF91CF9108953D
:1001B000382FE2E9F0E090E08FEF41E3931769F028
:1001C0002191822728E087FF06C0880F84272150CD
:1001D000D1F79F5FF3CF880FFACF089590918B00EE
:1001E0009295990F990F90748F77982B97B9369AAB
:1001F0003699FECF84B195B108951092AF00109258
:10020000AE001092AB001092AC0080938000109270
:100210008600109285001092840010928300C69A86
:10022000C49ABE9ABC9888EA8DB980EF8EB90895B9
:10023000F89481B5886181BD11BC78940895CF93FD
:10024000DF9300D0CDB7DEB7809199008430F1F113
:1002500058F4813001F1D8F0823001F1833061F13E
:100260008FEF809399000EC08730E9F138F4853024
:10027000B9F18630A9F7809195000BC08930D1F192
:100280008F3F71F70F900F90DF91CF91089580917C
:10029000940010DFE5CF80918200FBCF8091870032
:1002A00090918800898380918700909188009A833B
:1002B000CE01019632DFD4CF8091890090918A00DF
:1002C00089838091890090918A00F1CF80918C0080
:1002D00090918D00898380918C0090918D00E7CF63
:1002E00080919100D6CF909196008091970099834C
:1002F0008A83DECF80E1CDCF0F931F93CF93DF931F
:10030000181619065CF48C01A7DE80939900C1E0F1
:10031000D0E00130110539F40093AA00DF91CF91AC
:100320001F910F91089598DEFE01E856FF4F8183DB
:100330002196C017D1071CF4C031D105A1F7C856CA
:10034000DF4F1982E9CFCF93DF93EB0133D388835B
:10035000CE01DF91CF910895811105C08FB7F89438
:10036000DB988FBF08958FB7F894DB9AFACFFF928E
:100370000F931F93CF93DF9387E08093920086E0E3
:1003800017DF8093980002E910E0D0E0C0E0F801A8
:10039000F1908F01CE010ED3F81619F06F2DCE011A
:1003A00010D32196C730D10591F7DF91CF911F91DE
:1003B0000F91FF9008951F920F920FB60F92112484
:1003C0002F933F934F935F936F937F938F939F935D
:1003D000AF93BF93CF93EF93FF93809181008230CF
:1003E00009F474C0B8F4882389F1813009F454C049
:1003F000FF91EF91CF91BF91AF919F918F917F919D
:100400006F915F914F913F912F910F900FBE0F9081
:100410001F901895843009F45FC0B8F1853041F71A
:1004200084E0809381009FB18091AE008F5F8F70D8
:100430002091AF00281709F473C08093AE00E091BB
:10044000AE00F0E0E05AFF4F908319C08FB18823CF
:1004500031F08FB1869590918000891319C0789BF7
:1004600012C0E0918500F0918600309729F08091CC
:10047000AC008093AB00099581E0809381001FB8A8
:10048000BC9A8EE721C084E0F8CF8FB1882321F099
:10049000BC9888EA8DB917C08091AB009091AC00F0
:1004A0009817B1F38091AB008F5F8F708093AB0092
:1004B000E091AB00F0E0E059FF4F80818FB982E01E
:1004C00080938100BC9A80E78EB992CF83E08093BD
:1004D0008100BC981FB8D5CF85E080938100BC987F
:1004E00080E78EB9E0918300F0918400309709F4A1
:1004F0007FCFC091AE008091AF008C1709F478CF08
:100500008EB18E7AE9F3759B73CF9091AF00809195
:10051000AE00891B8F7090E00995C093AF0068CF43
:10052000BC98AFCF1F920F920FB60F9211242F934A
:100530003F934F935F936F937F938F939F93AF936B
:10054000BF93CF93EF93FF93E0918300F0918400EA
:10055000309781F0C091AE008091AF008C1751F0C0
:100560009091AF008091AE00891B8F7090E009954B
:10057000C093AF0010928100BC98B69B18C0B49B8A
:10058000FCCF88EA8DB980EF8EB9FF91EF91CF91C2
:10059000BF91AF919F918F917F916F915F914F919B
:1005A0003F912F910F900FBE0F901F90189588EFDD
:1005B000E9CF1F920F920FB60F9211248F939F9342
:1005C000CF93DF931F92CDB7DEB785B78F7D85BF01
:1005D00080919500982F990F990F90728770886479
:1005E000892B898381B5886181BD898181BD809195
:1005F0008E0090918F00892B49F080918E00909110
:100600008F00019790938F0080938E0085B7806252
:1006100085BF0F90DF91CF919F918F910F900FBE6B
:100620000F901F901895CF93DF9300D0CDB7DEB712
:1006300020E826BD91E096BD83E080BF83BF78941B
:100640008FBD8EBD85E886B926BD96BD8FB7F8945F
:10065000D39A8FBF81E080DE84B78F708093820051
:1006600014BEE6DD1A82BE016E5F7F4F90E080E02F
:100670006ADEFF24F3948A81873009F0F12C198215
:10068000BE016F5F7F4F81E090E05DDE8981803148
:1006900009F0F12C72E9C72E70E0D72E10E000E0CF
:1006A000C80188D1F60181936F010F5F1F4F07309A
:1006B0001105B1F78091920081507ADD90919800F8
:1006C000891302C0F11017C01092920080E180934C
:1006D000930080E58093940086E08093950081E00C
:1006E00090E0909397008093960041DE8091820085
:1006F000806180938200809194001092B0001092EB
:10070000B1001092AD0079DD8CE791E09093840008
:10071000809383008FE191E0909386008093850021
:1007200060EFD62ECC24CA94BB24B3940CE711E01E
:100730007C018091AA00882309F43DC0E0919900D2
:10074000EA3008F036C0F0E0E755FC4F8091AA008F
:10075000099409C02EC05FC07BC0A1C0BBC0C8C087
:10076000D6C0EAC026C0833021F5A0909B0081E06E
:10077000E5DCA8121EC080919A0080939400F7DDFA
:10078000BE98BC981DB8DEB8BE98BC98C498C698F0
:10079000809194001092B0001092B1001092AD00C0
:1007A0002CDD1093840000938300F0928600E09289
:1007B00085001092AA0080919000882309F4B9CF97
:1007C00085B7877E806185BF85B7806285BFF894D5
:1007D00080919500982F97709864880F880F807289
:1007E000892B898381B5886181BD898181BD789498
:1007F000809196009091970090938F0080938E0047
:1008000080E0AADD80918E0090918F00892B09F401
:10081000B5C08895F7CF813061F680938B0087E86B
:10082000DDDCA4DC58E0A52E912C812C87E8D6DCF9
:10083000880E991E9BDCAA94A110F8CF43E09694F1
:1008400087944A95E1F79092880080928700B1CF13
:10085000813009F0AECF80919100817080938B0040
:100860008091910080FF03C086E8B8DC7FDC38E02F
:10087000A32E912C812C86E8B1DC880E991E76DCA3
:10088000AA94A110F8CF84E8A9DC23E09694879479
:100890002A95E1F790928A00809289008ACF813070
:1008A00009F087CF10928B0098E0A92E912C812C13
:1008B00085E894DC880E991E59DCAA94A110F8CF23
:1008C00083E0969487948A95E1F790928D008092C8
:1008D0008C006FCF833009F06CCFA0909B0081E03B
:1008E0002DDCA81266CF80919A008093910061CF91
:1008F000833009F05ECFA0909B0081E01FDCA8123E
:1009000058CF80919A008093950031DD52CF84308A
:1009100009F04FCFA0909C0082E010DCA81249CFD4
:1009200080919B0090919A0089279827892790931E
:10093000970080939600E9CF873009F03ACFA090D6
:100940009F0085E0FBDBA81216C080919A008335DA
:1009500091F480919B008C3471F480919C008534DB
:1009600051F480919D00853431F480919E00803552
:1009700011F4B0929000C09299001BCF81E0ECDCA2
:1009800057DC85B78F7D85BF10929000D2CEE2E90B
:10099000F0E0108280E1818380E5828386E08383BA
:1009A00081E090E095838483E9E9F0E08FEF808334
:1009B000118A0895E199FECF8EBBE09A99278DB3F5
:1009C0000895262FE199FECF1CBA8EBB2DBB0FB622
:1009D000F894E29AE19A0FBE01960895EE0FFF1F78
:0C09E0000590F491E02D0994F894FFCFED
:00000001FF
