:1000000010C029C028C027C0F4C225C024C023C006
:1000100022C021C020C01FC01EC01DC0A3C2EBC192
:10002000B90411241FBECFE5D1E0DEBFCDBF20E073
:10003000A0E6B0E001C01D92A23BB207E1F710E0DC
:10004000C1E1D0E003C02197FE01BAD4C031D1078D
:10005000D1F7F5D2BBC4D4CF8091B100882339F059
:100060002091B00082131CC08FEF9FEF08959091F4
:10007000AF008091AE00891B8F70B1F39091AF00FB
:100080008091AE009817E1F3E091AF00EF5FEF7061
:10009000E093AF00F0E0E05AFF4F808190E00895D8
:1000A000E22FF0E0E05AFF4F808190E02F5F209335
:1000B000B00008959091AD009923A1F09091B10006
:1000C000903240F59091B000E92FF0E0E05AFF4FF8
:1000D000808381E0890F8093B0008093B10081E03C
:1000E00090E008952091AC009091AB002F5F921B9F
:1000F0009F7081F09091AC009F5F9F702091AB004A
:100100009217E1F3E92FF0E0E059FF4F80839093DD
:10011000AC00E5CF90E080E008950F931F93CF935C
:10012000DF93EC018881C6DF8C018981C3DF800FFA
:10013000911FDF91CF911F910F910895482F30E0CB
:1001400020E08FEF51E3F901E656FF4F90818927B8
:1001500098E087FF09C0880F85279150D1F72F5F5E
:100160003F4F241780F30895880FF7CF382FE2E927
:10017000F0E090E08FEF41E3931769F0219182273F
:1001800028E087FF06C0880F84272150D1F79F5FA2
:10019000F3CF880FFACF089590918B009295990F25
:1001A000990F90748F77982B97B9369A3699FECF1E
:1001B00084B195B10895F89481B5886181BD11BC71
:1001C00078940895CF93DF9300D0CDB7DEB78091B8
:1001D00099008430F1F158F4813001F1D8F0823087
:1001E00001F1833061F18FEF809399000EC0873069
:1001F000E9F138F48530B9F18630A9F7809195009E
:100200000BC08930D1F18F3F71F70F900F90DF91C4
:10021000CF910895809194004DDFE5CF80918600C5
:10022000FBCF80918700909188008983809187001F
:10023000909188009A83CE0101966FDFD4CF809190
:10024000890090918A0089838091890090918A0029
:10025000F1CF80918C0090918D00898380918C00EA
:1002600090918D00E7CF80919100D6CF909196002C
:100270008091970099838A83DECF80E1CDCF0F9361
:100280001F93CF93DF93181619065CF48C01E4DEFC
:1002900080939900C1E0D0E00130110539F400935A
:1002A000AA00DF91CF911F910F910895D5DEFE0135
:1002B000E856FF4F81832196C017D1071CF4C03147
:1002C000D105A1F7C856DF4F1982E9CFCF93DF934D
:1002D00000D01F92CDB7DEB71B829B81981798F490
:1002E0001A82198229813A812A3C310540F40000A2
:1002F00029813A812F5F3F4F3A832983F3CF9B8136
:100300009F5F9B83EACF0F900F900F90DF91CF916B
:100310000895811109C0BE98BC981DB880EF8EB9B0
:10032000BE98BC98C498C698809194001092B00072
:100330001092B1001092AD001092AF001092AE007A
:100340001092AB001092AC00809384001092830056
:10035000109282001092810010928000C69AC49A76
:10036000BE9ABC9888EA8DB980EF8EB98FE391E090
:10037000909381008093800082EE90E090938300C0
:10038000809382000895CF93DF93EB0105D3888398
:10039000CE01DF91CF910895811105C08FB7F894F8
:1003A000DB988FBF08958FB7F894DB9AFACFFF924E
:1003B0000F931F93CF93DF9387E08093920086E0A3
:1003C000D5DE8093980002E910E0D0E0C0E0F801AB
:1003D000F1908F01CE01E0D2F81619F06F2DCE0109
:1003E000E2D22196C730D10591F7DF91CF911F91CD
:1003F0000F91FF9008951F920F920FB60F92112444
:100400002F933F934F935F936F937F938F939F931C
:10041000AF93BF93CF93EF93FF938091850082308A
:1004200009F474C0B8F4882389F1813009F454C008
:10043000FF91EF91CF91BF91AF919F918F917F915C
:100440006F915F914F913F912F910F900FBE0F9041
:100450001F901895843009F45FC0B8F1853041F7DA
:1004600084E0809385009FB18091AE008F5F8F7094
:100470002091AF00281709F473C08093AE00E0917B
:10048000AE00F0E0E05AFF4F908319C08FB188238F
:1004900031F08FB1869590918400891319C0789BB3
:1004A00012C0E0918200F0918300309729F0809192
:1004B000AC008093AB00099581E0809385001FB864
:1004C000BC9A8EE721C084E0F8CF8FB1882321F059
:1004D000BC9888EA8DB917C08091AB009091AC00B0
:1004E0009817B1F38091AB008F5F8F708093AB0052
:1004F000E091AB00F0E0E059FF4F80818FB982E0DE
:1005000080938500BC9A80E78EB992CF83E0809378
:100510008500BC981FB8D5CF85E080938500BC9836
:1005200080E78EB9E0918000F0918100309709F466
:100530007FCFC091AE008091AF008C1709F478CFC7
:100540008EB18E7AE9F3759B73CF9091AF00809155
:10055000AE00891B8F7090E00995C093AF0068CF03
:10056000BC98AFCF1F920F920FB60F9211242F930A
:100570003F934F935F936F937F938F939F93AF932B
:10058000BF93CF93EF93FF93E0918000F0918100B0
:10059000309781F0C091AE008091AF008C1751F080
:1005A0009091AF008091AE00891B8F7090E009950B
:1005B000C093AF0010928500BC98B69B18C0B49B46
:1005C000FCCF88EA8DB980EF8EB9FF91EF91CF9182
:1005D000BF91AF919F918F917F916F915F914F915B
:1005E0003F912F910F900FBE0F901F90189588EF9D
:1005F000E9CF1F920F920FB60F9211248F939F9302
:1006000085B78F7D85BF81B5806481BD80918E0067
:1006100090918F00892B49F080918E0090918F00EE
:10062000019790938F0080938E0085B7806285BF7D
:100630009F918F910F900FBE0F901F901895CF93A1
:10064000DF9300D0CDB7DEB720E826BD91E096BDA0
:1006500083E080BF83BF78948FBD8EBD85E886B967
:1006600026BD96BD8FB7F894D39A8FBF81E094DEF4
:1006700084B78F708093860014BE9DDD1A82BE0100
:100680006E5F7F4F90E080E07EDE1A811982BE01AE
:100690006F5F7F4F81E090E076DE8981803121F4C9
:1006A000FF24F394173009F0F12C62E9C62E60E0C4
:1006B000D62E10E000E0C8016FD1F60181936F01E2
:1006C0000F5F1F4F07301105B1F7809192008150E5
:1006D0004DDD90919800891302C0F11017C010925F
:1006E000920080E18093930080E58093940086E0FF
:1006F0008093950081E090E090939700809396001E
:1007000056DE8091860080618093860081E001DE64
:100710001FEF01E08091AA00882329F1E091990060
:10072000EA30F8F4F0E0E856FC4F8091AA00099412
:1007300009C017C054C073C09BC0B6C0C3C0D1C0ED
:10074000E5C00FC0833069F4F0909B0081E0F6DCD7
:10075000F81207C080919A008093940028DE80E010
:10076000D8DD1092AA0080919000882399F28091A0
:1007700096009091970090938F0080938E008091C7
:100780008E0090918F00892B09F4F0C085B7877E89
:10079000806185BF84E800DD379880B18F6080B9C3
:1007A00080E0FADDF89480919500982F9770986416
:1007B000880F880F8072892B898381B5886181BDFC
:1007C000898181BD789485B7806285BF80918E00D4
:1007D00090918F00892B09F4BBC08895F7CF8130A9
:1007E00009F0BFCF80938B0087E8D6DC81E06EDD17
:1007F00058E0D52EF12CE12C87E8CEDCE80EF91E6E
:1008000081E064DDDA94D110F7CF43E0F694E79409
:100810004A95E1F7F0928800E0928700A2CF8130FC
:1008200009F09FCF80919100817080938B0080911F
:10083000910080FF04C086E8AFDC81E047DD38E04E
:10084000D32EF12CE12C86E8A7DCE80EF91E81E01E
:100850003DDDDA94D110F7CF84E89EDC23E0F694F6
:10086000E7942A95E1F7F0928A00E092890079CF27
:10087000813009F076CF10928B0098E0D92EF12CC0
:10088000E12C85E889DCE80EF91E81E01FDDDA94B1
:10089000D110F7CF83E0F694E7948A95E1F7F092D0
:1008A0008D00E0928C005DCF833009F05ACFF0903C
:1008B0009B0081E043DCF81254CF80919A00809332
:1008C00091004FCF833009F04CCFF0909B0081E036
:1008D00035DCF81246CF80919A008093950067DD51
:1008E00040CF843009F03DCFF0909C0082E026DCC0
:1008F000F81237CF80919B0090919A008927982712
:1009000089279093970080939600E9CF873009F06C
:1009100028CFF0909F0085E011DCF81216C080917E
:100920009A00833591F480919B008C3471F480910E
:100930009C00853451F480919D00853431F4809180
:100940009E00803511F4009390001093990009CF18
:1009500085B78F7D85BF2FDC81E01EDD80B1887F6C
:1009600080B984E0B3DC379A80E0D3DC1092900049
:10097000D1CEE2E9F0E0108280E1818380E58283DC
:1009800086E0838381E090E095838483E9E9F0E069
:100990008FEF8083118A0895E199FECF8EBBE09A94
:1009A00099278DB30895262FE199FECF1CBA8EBBEF
:1009B0002DBB0FB6F894E29AE19A0FBE0196089506
:1009C000EE0FFF1F0590F491E02D0994F894FFCFEE
:00000001FF
