:1000000010C029C028C027C026C025C024C023C0D6
:1000100022C021C020C01FC01EC01DC05CC2A4C120
:100020006B0411241FBECFE5D1E0DEBFCDBF20E0C1
:10003000A0E6B0E001C01D92AF3AB207E1F710E0D0
:10004000C1E1D0E003C02197FE016CD4C031D107DB
:10005000D1F788D26DC4D4CF8091AE00882339F017
:100060002091AD0082131CC08FEF9FEF08959091F7
:10007000AC008091AB00891B8F70B1F39091AC0004
:100080008091AB009817E1F3E091AC00EF5FEF7067
:10009000E093AC00F0E0E05AFF4F808190E00895DB
:1000A000E22FF0E0E05AFF4F808190E02F5F209335
:1000B000AD0008959091AA009923A1F09091AE000F
:1000C000903240F59091AD00E92FF0E0E05AFF4FFB
:1000D000808381E0890F8093AD008093AE0081E042
:1000E00090E008952091A9009091A8002F5F921BA5
:1000F0009F7081F09091A9009F5F9F702091A80050
:100100009217E1F3E92FF0E0E059FF4F80839093DD
:10011000A900E5CF90E080E008950F931F93CF935F
:10012000DF93EC018881C6DF8C018981C3DF800FFA
:10013000911FDF91CF911F910F910895CF93DF937E
:1001400000D01F92CDB7DEB71B828B81811112C008
:100150001A82198289819A818F3A910538F40000B8
:1001600089819A8101969A838983F4CF8B818F5FED
:100170008B83EBCF0F900F900F90DF91CF9108956D
:1001800090918B009295990F990F90748770982B8E
:1001900097B9369A3699FECF84B195B108951092E9
:1001A000AC001092AB001092A8001092A9008093AE
:1001B00080001092840010928300109286001092AA
:1001C0008500C69AC49ABE9ABC9888EA8DB980EF19
:1001D0008EB90895CF93DF9300D0CDB7DEB780916D
:1001E00096008430A9F158F4813001F1D8F08230C2
:1001F00001F1833041F18FEF809396000EC087307C
:1002000079F138F4853049F18630A9F78091920070
:100210000BC0893051F18F3F71F70F900F90DF9134
:10022000CF9108958091910045DFE5CF80918200C4
:10023000FBCF909187008091880099838A83CE01BB
:1002400001966BDFD8CF9091890080918A00F5CF1D
:1002500090918C0080918D00F0CF80918E00E4CF42
:100260009091930080919400E8CF80E1DDCFEF92F0
:10027000FF920F931F93CF93DF93181619067CF408
:100280008C01EADE8093960087E9E82E80E0F82E64
:10029000C1E0D0E00130110561F40093A700DF91C7
:1002A000CF911F910F91FF90EF900895C031D1052C
:1002B00041F0D2DEF70181937F012196C017D1076B
:1002C000ACF3CA56DF4F1882E8CF282FFC018FEF1E
:1002D00031E39E2F921B961760F49191892798E045
:1002E00087FF05C0880F83279150D1F7F2CF880F81
:1002F000FBCF0895CF93DF93EB0100D38883CE012A
:10030000DF91CF910895811105C08FB7F894DB98E4
:100310008FBF08958FB7F894DB9AFACFFF920F93AF
:100320001F93CF93DF9387E080938F0066E08FE881
:1003300090E0CBDF809395000FE810E0D0E0C0E0C4
:10034000F801F1908F01CE01D9D2F81619F06F2D76
:10035000CE01DBD22196C730D10591F7DF91CF9145
:100360001F910F91FF9008951F920F920FB60F9259
:1003700011242F933F934F935F936F937F938F93AA
:100380009F93AF93BF93CF93EF93FF93809181009F
:10039000823009F474C0B8F4882389F1813009F4FB
:1003A00054C0FF91EF91CF91BF91AF919F918F91E9
:1003B0007F916F915F914F913F912F910F900FBE61
:1003C0000F901F901895843009F45FC0B8F1853004
:1003D00041F784E0809381009FB18091AB008F5FF3
:1003E0008F702091AC00281709F473C08093AB0084
:1003F000E091AB00F0E0E05AFF4F908319C08FB15D
:10040000882331F08FB1869590918000891319C0AF
:10041000789B12C0E0918300F0918400309729F01E
:100420008091A9008093A800099581E080938100C4
:100430001FB8BC9A8EE721C084E0F8CF8FB1882323
:1004400021F0BC9888EA8DB917C08091A8009091DE
:10045000A9009817B1F38091A8008F5F8F708093E7
:10046000A800E091A800F0E0E059FF4F80818FB92B
:1004700082E080938100BC9A80E78EB992CF83E0BE
:1004800080938100BC981FB8D5CF85E08093810010
:10049000BC9880E78EB9E0918500F0918600309796
:1004A00009F47FCFC091AB008091AC008C1709F4A8
:1004B00078CF8EB18E7AE9F3759B73CF9091AC00B3
:1004C0008091AB00891B8F7090E00995C093AC00C0
:1004D00068CFBC98AFCF1F920F920FB60F92112426
:1004E0002F933F934F935F936F937F938F939F933C
:1004F000AF93BF93CF93EF93FF93E0918500F0917B
:100500008600309781F0C091AB008091AC008C17D1
:1005100051F09091AC008091AB00891B8F7090E0FE
:100520000995C093AC0010928100BC98B69B18C08E
:10053000B49BFCCF88EA8DB980EF8EB9FF91EF9123
:10054000CF91BF91AF919F918F917F916F915F916B
:100550004F913F912F910F900FBE0F901F901895C4
:1005600088EFE9CFCF93DF9300D0CDB7DEB720E897
:1005700026BD91E096BD83E080BF83BF78948FBD98
:100580008EBD85E886B926BD96BD8FB7F894D39AFF
:100590008FBF81E0B8DE84B78F70809382001A82AB
:1005A000BE016E5F7F4F90E080E0A4DE1A81198269
:1005B000BE016F5F7F4F81E090E09CDE89818031DA
:1005C00021F4FF24F394173009F0F12C7FE8C72EB3
:1005D00070E0D72E10E000E0C80190D1F6018193C1
:1005E0006F010F5F1F4F07301105B1F760918F004A
:1005F00061508FE890E069DE90919500891302C008
:10060000F11017C010928F0080E18093900080E578
:100610008093910086E08093920081E090E0909337
:100620009400809393007ADE8091820080618093B1
:10063000820081B590919200887D292F2770822BAE
:10064000990F990F9072892B81BD80919100109222
:10065000AD001092AE001092AA00A1DD87E391E0F8
:1006600090938600809385008AEE90E090938400BA
:1006700080938300BB24BA9460EFA62E07E311E0B9
:100680007C0180919600853009F4C6C070F58230F7
:1006900009F483C048F4882309F44DC0813009F47B
:1006A00077C0B092960071C0833009F494C0843052
:1006B000C1F78091A700882321F310928B0098E066
:1006C000992ED12CC12C80E25BDDC80ED91E36DDFF
:1006D0009A949110F8CF83E0D694C7948A95E1F765
:1006E000D0928D00C0928C0050C0883009F4C5C0F3
:1006F000E0F4863009F4A2C0873099F68091A70013
:10070000833008F442C0D090990062E087E990E01D
:10071000DCDDD8123AC080919700909198009093B8
:10072000940080939300FADD30C0893089F18F3FC7
:1007300009F0B7CFFFCF8091A700823030F1D09081
:10074000980061E087E990E0C0DDD8121EC080917A
:10075000970080939100E2DDBE98BC981DB8AEB8BA
:10076000BE98BC98C498C698809191001092AD0034
:100770001092AE001092AA0012DD10938600009332
:100780008500F0928400E09283001092A70079CF58
:100790008091A7008111F9CF74CF8091A7008823A1
:1007A00009F46FCF81E080938B0058E0952ED12C17
:1007B000C12C82E2E5DCC80ED91EC0DC9A949110EF
:1007C000F8CF43E0D694C7944A95E1F7D0928800D9
:1007D000C0928700DACF8091A700882309F451CF17
:1007E00080918E0080938B0038E0932ED12CC12C09
:1007F00081E2C6DCC80ED91EA1DC9A949110F8CF14
:1008000082E2BEDC23E0D694C7942A95E1F7D09229
:100810008A00C0928900B9CF8091A700823008F485
:10082000B4CFD090980061E087E990E04EDDD81217
:10083000ACCF8091970080938E00A7CF8091A700C6
:10084000823008F4A2CFD090980061E087E990E070
:100850003CDDD8129ACF80919700809392005EDDA4
:1008600081B590919200887D292F2770822B990F56
:10087000990F9072892B81BD88CF8091A700873016
:1008800008F40FCFD0909C0065E087E990E01DDD73
:10089000D81207CF80919700833509F002CF80915D
:1008A00098008C3409F0FDCE80919900853409F0D0
:1008B000F8CE80919A00853409F0F3CE80919B00A8
:1008C000803509F0EECE89B383FB882780F991E06B
:1008D000892719DDE6CEEFE8F0E0108280E1818320
:1008E00080E5828386E0838381E090E09583848342
:1008F000E6E9F0E08FEF8083118A0895E199FECF59
:100900008EBBE09A99278DB30895262FE199FECFEB
:100910001CBA8EBB2DBB0FB6F894E29AE19A0FBEBB
:1009200001960895EE0FFF1F0590F491E02D0994B4
:04093000F894FFCF69
:00000001FF
