:1000000010C029C028C027C026C025C024C023C0D6
:1000100022C021C020C01FC01EC01DC07CC2C4C1E0
:10002000670411241FBECFE5D1E0DEBFCDBF20E0C5
:10003000A0E6B0E001C01D92AF3AB207E1F710E0D0
:10004000C1E1D0E003C02197FE0168D4C031D107DF
:10005000D1F7A8D269C4D4CF8091AE00882339F0FB
:100060002091AD0082131CC08FEF9FEF08959091F7
:10007000AC008091AB00891B8F70B1F39091AC0004
:100080008091AB009817E1F3E091AC00EF5FEF7067
:10009000E093AC00F0E0E05AFF4F808190E00895DB
:1000A000E22FF0E0E05AFF4F808190E02F5F209335
:1000B000AD0008959091AA009923A1F09091AE000F
:1000C000903240F59091AD00E92FF0E0E05AFF4FFB
:1000D000808381E0890F8093AD008093AE0081E042
:1000E00090E008952091A9009091A8002F5F921BA5
:1000F0009F7081F09091A9009F5F9F702091A80050
:100100009217E1F3E92FF0E0E059FF4F80839093DD
:10011000A900E5CF90E080E008950F931F93CF935F
:10012000DF93EC018881C6DF8C018981C3DF800FFA
:10013000911FDF91CF911F910F910895482F30E0CB
:1001400020E08FEF51E3F901E956FF4F90818927B5
:1001500098E087FF09C0880F85279150D1F72F5F5E
:100160003F4F241780F30895880FF7CFCF93DF9385
:1001700000D01F92CDB7DEB71B828B81811112C0D8
:100180001A82198289819A818A3C910538F400008B
:1001900089819A8101969A838983F4CF8B818F5FBD
:1001A0008B83EBCF0F900F900F90DF91CF9108953D
:1001B000382FEFE8F0E090E08FEF41E3931769F01C
:1001C0002191822728E087FF06C0880F84272150CD
:1001D000D1F79F5FF3CF880FFACF089590918700F2
:1001E0009295990F990F90748F77982B97B9369AAB
:1001F0003699FECF84B195B108951092AC0010925B
:10020000AB001092A8001092A90080938000109279
:100210008D0010928C0010928B0010928A00C69A6A
:10022000C49ABE9ABC9888EA8DB980EF8EB90895B9
:10023000CF93DF9300D0CDB7DEB7809196008430A6
:10024000F1F158F4813001F1D8F0823001F18330BE
:1002500061F18FEF809396000EC08730E9F138F49A
:100260008530B9F18630A9F7809192000BC08930B2
:10027000D1F18F3F71F70F900F90DF91CF910895DB
:100280008091910017DFE5CF80918200FBCF8091B4
:1002900088009091890089838091880090918900DD
:1002A0009A83CE01019639DFD4CF80918500909159
:1002B000860089838091850090918600F1CF80919E
:1002C00083009091840089838091830090918400C1
:1002D000E7CF80918E00D6CF9091930080919400CB
:1002E00099838A83DECF80E1CDCF0F931F93CF9385
:1002F000DF93181619065CF48C01AEDE809396002D
:10030000C1E0D0E00130110539F40093A700DF917E
:10031000CF911F910F9108959FDEFE01EB56FF4F85
:1003200081832196C017D1071CF4C031D105A1F7F4
:10033000CB56DF4F1982E9CFCF93DF93EB01DAD2AF
:100340008883CE01DF91CF910895811105C08FB7C9
:10035000F894DB988FBF08958FB7F894DB9AFACFA3
:10036000FF920F931F93CF93DF9387E080938F00CB
:1003700086E01EDF809395000FE810E0D0E0C0E03B
:10038000F801F1908F01CE01B5D2F81619F06F2D5A
:10039000CE01B7D22196C730D10591F7DF91CF9129
:1003A0001F910F91FF9008951F920F920FB60F9219
:1003B00011242F933F934F935F936F937F938F936A
:1003C0009F93AF93BF93CF93EF93FF93809181005F
:1003D000823009F474C0B8F4882389F1813009F4BB
:1003E00054C0FF91EF91CF91BF91AF919F918F91A9
:1003F0007F916F915F914F913F912F910F900FBE21
:100400000F901F901895843009F45FC0B8F18530C3
:1004100041F784E0809381009FB18091AB008F5FB2
:100420008F702091AC00281709F473C08093AB0043
:10043000E091AB00F0E0E05AFF4F908319C08FB11C
:10044000882331F08FB1869590918000891319C06F
:10045000789B12C0E0918C00F0918D00309729F0CC
:100460008091A9008093A800099581E08093810084
:100470001FB8BC9A8EE721C084E0F8CF8FB18823E3
:1004800021F0BC9888EA8DB917C08091A80090919E
:10049000A9009817B1F38091A8008F5F8F708093A7
:1004A000A800E091A800F0E0E059FF4F80818FB9EB
:1004B00082E080938100BC9A80E78EB992CF83E07E
:1004C00080938100BC981FB8D5CF85E080938100D0
:1004D000BC9880E78EB9E0918A00F0918B0030974C
:1004E00009F47FCFC091AB008091AC008C1709F468
:1004F00078CF8EB18E7AE9F3759B73CF9091AC0073
:100500008091AB00891B8F7090E00995C093AC007F
:1005100068CFBC98AFCF1F920F920FB60F921124E5
:100520002F933F934F935F936F937F938F939F93FB
:10053000AF93BF93CF93EF93FF93E0918A00F09135
:100540008B00309781F0C091AB008091AC008C178C
:1005500051F09091AC008091AB00891B8F7090E0BE
:100560000995C093AC0010928100BC98B69B18C04E
:10057000B49BFCCF88EA8DB980EF8EB9FF91EF91E3
:10058000CF91BF91AF919F918F917F916F915F912B
:100590004F913F912F910F900FBE0F901F90189584
:1005A00088EFE9CFCF93DF9300D0CDB7DEB720E857
:1005B00026BD91E096BD83E080BF83BF78948FBD58
:1005C0008EBD85E886B926BD96BD8FB7F894D39ABF
:1005D0008FBF81E0BADE84B78F708093820014BE33
:1005E0001A82BE016E5F7F4F90E080E0A5DE1A8127
:1005F0001982BE016F5F7F4F81E090E09DDE8981AF
:10060000803121F4FF24F394173009F0F12C7FE8B6
:10061000C72E70E0D72E10E000E0C8016BD1F601C4
:1006200081936F010F5F1F4F07301105B1F7809164
:100630008F008150BDDD90919500891302C0F110AB
:1006400017C010928F0080E18093900080E5809326
:10065000910086E08093920081E090E09093940076
:10066000809393007DDE8091820080618093820080
:1006700081B590919200887D292F2770822B990F48
:10068000990F9072892B81BD809191001092AD00DD
:100690001092AE001092AA00B0DD85E791E0909331
:1006A0008B0080938A0088E191E090938D00809385
:1006B0008C00DD24DA94CC24C39460EFB62E05E7D9
:1006C00011E07C018091A7008823E1F3E09196007E
:1006D000EA3008F036C0F0E0EF58FC4F8091A700F8
:1006E000099409C02EC030C04CC071C08BC098C0E6
:1006F000B2C0C7C026C0833021F5A090980081E029
:100700001DDDA8121EC0809197008093910028DE05
:10071000BE98BC981DB8BEB8BE98BC98C498C69880
:10072000809191001092AD001092AE001092AA003C
:1007300064DD10938B0000938A00F0928D00E092AC
:100740008C001092A700BECF8130D9F7809387002C
:1007500087E844DD0BDD58E0A52E912C812C87E83D
:100760003DDD880E991E02DDAA94A110F8CF43E06A
:10077000969487944A95E1F7909289008092880038
:10078000E0CF8130F1F680918E00817080938700F8
:1007900080918E0080FF03C086E820DDE7DC38E032
:1007A000A32E912C812C86E819DD880E991EDEDCA3
:1007B000AA94A110F8CF84E811DD23E096948794E1
:1007C0002A95E1F79092860080928500BACF813019
:1007D00009F0B7CF1092870098E0A92E912C812CB8
:1007E00085E8FCDC880E991EC1DCAA94A110F8CF24
:1007F00083E0969487948A95E1F7909284008092A2
:1008000083009FCF833009F09CCFA090980081E0B7
:1008100095DCA81296CF8091970080938E0091CF9F
:10082000833009F08ECFA090980081E087DCA81279
:1008300088CF809197008093920092DD81B590914E
:100840009200887D292F2770822B990F990F907223
:10085000892B81BD76CF843009F073CFA0909900A9
:1008600082E06CDCA8126DCF809198009091970087
:10087000892798278927909394008093930070DDAF
:1008800060CF873009F05DCFA0909C0085E056DCFA
:10089000A8121AC0809197008335B1F48091980016
:1008A0008C3491F480919900853471F480919A0090
:1008B000853451F480919B00803531F489B383FBFA
:1008C000882780F98C2541DDD09296003ACFEFE859
:1008D000F0E0108280E1818380E5828386E083837B
:1008E00081E090E095838483E6E9F0E08FEF8083F8
:1008F000118A0895E199FECF8EBBE09A99278DB3B6
:100900000895262FE199FECF1CBA8EBB2DBB0FB6E2
:10091000F894E29AE19A0FBE01960895EE0FFF1F38
:0C0920000590F491E02D0994F894FFCFAD
:00000001FF
