:1000000026C03FC03EC03DC03DC33BC03AC039C022
:1000100038C037C036C035C034C033C0ECC234C27B
:1000200000003A00370000003B00380002020202E4
:1000300002020202010101010101010101020408A1
:100040001020408001020408102040801005112477
:100050001FBECFE5D1E0DEBFCDBF20E0A0E6B0E01F
:1000600001C01D92A23BB207E1F710E0C7E2D0E069
:1000700003C02197FE01FBD4C632D107D1F728D3A4
:10008000FCC4BECF8091B100882339F02091B0002C
:1000900082131CC08FEF9FEF08959091AF00809165
:1000A000AE00891B8F70B1F39091AF008091AE00CC
:1000B0009817E1F3E091AF00EF5FEF70E093AF00CE
:1000C000F0E0E05AFF4F808190E00895E22FF0E0E9
:1000D000E05AFF4F808190E02F5F2093B000089599
:1000E0009091AD009923A1F09091B100903240F52C
:1000F0009091B000E92FF0E0E05AFF4F808381E05B
:10010000890F8093B0008093B10081E090E0089562
:100110002091AC009091AB002F5F921B9F7081F0FB
:100120009091AC009F5F9F702091AB009217E1F31C
:10013000E92FF0E0E059FF4F80839093AC00E5CFCA
:1001400090E080E008950F931F93CF93DF93EC012D
:100150008881C6DF8C018981C3DF800F911FDF9109
:10016000CF911F910F910895BE98BC981DB880EF54
:100170008EB9BE98BC98C498C6980895482F30E0B0
:1001800020E08FEF51E3F901E656FF4F9081892778
:1001900098E087FF09C0880F85279150D1F72F5F1E
:1001A0003F4F241780F30895880FF7CF382FE2E9E7
:1001B000F0E090E08FEF41E3931769F021918227FF
:1001C00028E087FF06C0880F84272150D1F79F5F62
:1001D000F3CF880FFACF089590918B009295990FE5
:1001E000990F90748F77982B97B9369A3699FECFDE
:1001F00084B195B10895F89481B5886181BD11BC31
:1002000078940895CF93DF9300D0CDB7DEB7809177
:1002100099008430F1F158F4813001F1D8F0823046
:1002200001F1833061F18FEF809399000EC0873028
:10023000E9F138F48530B9F18630A9F7809195005D
:100240000BC08930D1F18F3F71F70F900F90DF9184
:10025000CF9108958091940043DFE5CF809186008F
:10026000FBCF8091870090918800898380918700DF
:10027000909188009A83CE01019665DFD4CF80915A
:10028000890090918A0089838091890090918A00E9
:10029000F1CF80918C0090918D00898380918C00AA
:1002A00090918D00E7CF80919100D6CF90919600EC
:1002B0008091970099838A83DECF80E1CDCF0F9321
:1002C0001F93CF93DF93181619065CF48C01DADEC6
:1002D00080939900C1E0D0E00130110539F400931A
:1002E000AA00DF91CF911F910F910895CBDEFE01FF
:1002F000E856FF4F81832196C017D1071CF4C03107
:10030000D105A1F7C856DF4F1982E9CFCF93DF930C
:1003100000D01F92CDB7DEB71B829B81981798F44F
:100320001A82198229813A812A3C310540F4000061
:1003300029813A812F5F3F4F3A832983F3CF9B81F5
:100340009F5F9B83EACF0F900F900F90DF91CF912B
:100350000895811101C008DF809194001092B000CF
:100360001092B1001092AD001092AF001092AE004A
:100370001092AB001092AC00809384001092830026
:10038000109282001092810010928000C69AC49A46
:10039000BE9ABC9888EA8DB980EF8EB98FE591E05E
:1003A000909381008093800082E091E0909383009D
:1003B000809382000895CF93DF93EB0144D3888329
:1003C000CE01DF91CF910895811105C08FB7F894C8
:1003D000DB988FBF08958FB7F894DB9AFACFCF934D
:1003E000DF9390E0FC01E45CFF4F2491845D9F4F1C
:1003F000FC0184918823D1F090E0880F991FFC01C3
:10040000E05EFF4FA591B491FC01EA5DFF4FC591FD
:10041000D49161110EC09FB7F8948C91E22FE095B2
:100420008E238C932881E223E8839FBFDF91CF91B5
:1004300008958FB7F894EC91E22BEC938FBFF6CF31
:10044000FF920F931F93CF93DF9387E080939200E7
:1004500086E0ACDE8093980002E910E0D0E0C0E0D6
:10046000F801F1908F01CE01EED2F81619F06F2D40
:10047000CE01F0D22196C730D10591F7DF91CF910F
:100480001F910F91FF9008951F920F920FB60F9238
:1004900011242F933F934F935F936F937F938F9389
:1004A0009F93AF93BF93CF93EF93FF93809185007A
:1004B000823009F474C0B8F4882389F1813009F4DA
:1004C00054C0FF91EF91CF91BF91AF919F918F91C8
:1004D0007F916F915F914F913F912F910F900FBE40
:1004E0000F901F901895843009F45FC0B8F18530E3
:1004F00041F784E0809385009FB18091AE008F5FCB
:100500008F702091AF00281709F473C08093AE005C
:10051000E091AE00F0E0E05AFF4F908319C08FB138
:10052000882331F08FB1869590918400891319C08A
:10053000789B12C0E0918200F0918300309729F0FF
:100540008091AC008093AB00099581E08093850099
:100550001FB8BC9A8EE721C084E0F8CF8FB1882302
:1005600021F0BC9888EA8DB917C08091AB009091BA
:10057000AC009817B1F38091AB008F5F8F708093C0
:10058000AB00E091AB00F0E0E059FF4F80818FB904
:1005900082E080938500BC9A80E78EB992CF83E099
:1005A00080938500BC981FB8D5CF85E080938500E7
:1005B000BC9880E78EB9E0918000F091810030977F
:1005C00009F47FCFC091AE008091AF008C1709F481
:1005D00078CF8EB18E7AE9F3759B73CF9091AF008F
:1005E0008091AE00891B8F7090E00995C093AF0099
:1005F00068CFBC98AFCF1F920F920FB60F92112405
:100600002F933F934F935F936F937F938F939F931A
:10061000AF93BF93CF93EF93FF93E0918000F0915E
:100620008100309781F0C091AE008091AF008C17AF
:1006300051F09091AF008091AE00891B8F7090E0D7
:100640000995C093AF0010928500BC98B69B18C066
:10065000B49BFCCF88EA8DB980EF8EB9FF91EF9102
:10066000CF91BF91AF919F918F917F916F915F914A
:100670004F913F912F910F900FBE0F901F901895A3
:1006800088EFE9CF1F920F920FB60F9211248F932C
:100690009F9385B78F7D85BF81B5806481BD809133
:1006A0008E0090918F00892B49F080918E0090915F
:1006B0008F00019790938F0080938E0085B78062A2
:1006C00085BF9F918F910F900FBE0F901F9018952F
:1006D000CF93DF9300D0CDB7DEB720E826BD91E001
:1006E00096BD83E080BF83BF78948FBD8EBD85E8C3
:1006F00086B9F89426BD96BD789461E08BE06FDEF4
:1007000081E062DE84B78F708093860014BE73DD53
:100710001A82BE016E5F7F4F90E080E04CDE1A814E
:100720001982BE016F5F7F4F81E090E044DE8981D6
:10073000803121F4FF24F394173009F0F12C62E9A1
:10074000C62E60E0D62E10E000E0C8017CD1F60194
:1007500081936F010F5F1F4F07301105B1F7809133
:100760009200815023DD90919800891302C0F1100E
:1007700017C01092920080E18093930080E58093EF
:10078000940086E08093950081E090E0909397003C
:100790008093960055DE809186008061809386006C
:1007A00081E0D7DD1FEF01E08091AA00882329F1C5
:1007B000E0919900EA30F8F4F0E0EE51FC4F8091BE
:1007C000AA00099409C017C05EC07DC0A5C0C0C002
:1007D000CDC0DBC0EFC00FC0833069F4F0909B0048
:1007E00081E0CCDCF81207C080919A0080939400DD
:1007F00027DE80E0AEDD1092AA0080919000882371
:1008000099F2809196009091970090938F00809339
:100810008E0080918E0090918F00892B09F4FDC08D
:10082000A3DC60E084E0DBDD60E086E0D8DD85B756
:10083000877E806185BF84E8CFDC3798F8B0469822
:10084000479A80B18F6080B980E0BEDDF8948091D6
:100850009500982F97709864880F880F8072892B65
:10086000898381B5886181BD898181BD789485B78F
:10087000806285BF80918E0090918F00892B09F452
:10088000BBC08895F7CF813009F0B5CF80938B003E
:1008900087E8A2DC81E03ADD58E0D52EF12CE12C8E
:1008A00087E89ADCE80EF91E81E030DDDA94D11099
:1008B000F7CF43E0F694E7944A95E1F7F092880089
:1008C000E092870098CF813009F095CF8091910018
:1008D000817080938B008091910080FF04C086E836
:1008E0007BDC81E013DD38E0D32EF12CE12C86E8AF
:1008F00073DCE80EF91E81E009DDDA94D110F7CF40
:1009000084E86ADC23E0F694E7942A95E1F7F09214
:100910008A00E09289006FCF813009F06CCF10928D
:100920008B0098E0D92EF12CE12C85E855DCE80EFF
:10093000F91E81E0EBDCDA94D110F7CF83E0F69476
:10094000E7948A95E1F7F0928D00E0928C0053CF06
:10095000833009F050CFF0909B0081E00FDCF8125B
:100960004ACF80919A008093910045CF833009F05F
:1009700042CFF0909B0081E001DCF8123CCF8091E7
:100980009A00809395005CDD36CF843009F033CF38
:10099000F0909C0082E0F2DBF8122DCF80919B005A
:1009A00090919A00892798278927909397008093A0
:1009B0009600E9CF873009F01ECFF0909F0085E0C8
:1009C000DDDBF81216C080919A00833591F4809196
:1009D0009B008C3471F480919C00853451F480919B
:1009E0009D00853431F480919E00803511F4009390
:1009F000900010939900FFCE85B78F7D85BFFBDBFC
:100A000081E0E2DC80B1887F80B9F8B884E07EDCE8
:100A1000379A84E8E1DB81E09CDC10929000C4CE40
:100A2000E2E9F0E0108280E1818380E5828386E064
:100A3000838381E090E095838483E9E9F0E08FEFA0
:100A40008083118A0895E199FECF8EBBE09A9927A1
:100A50008DB30895262FE199FECF1CBA8EBB2DBB16
:100A60000FB6F894E29AE19A0FBE01960895EE0F40
:0E0A7000FF1F0590F491E02D0994F894FFCF3C
:00000001FF
