:1000000010C034C033C032C031C030C02FC02EC089
:100010002DC02CC026C1D5C029C028C027C026C0ED
:10002000D20111241FBECFE5D1E0DEBFCDBF20E05D
:10003000AEE7B0E001C01D92AD3AB207E1F710E0C3
:10004000A0E6B0E0ECEEF3E002C005900D92AE3712
:10005000B107D9F710E0C1E1D0E003C02197FE015C
:10006000BDD1C031D107D1F746D1BEC1C9CF0895A6
:100070002FB7F894FC01458556853AE060950894C1
:1000800020F47BB375237BBB04C07BB3742B7BBB99
:100090000000E1D0E0D0DFD0DED066953A9581F760
:1000A0002FBF81E090E00895DC011F96ED91FC9157
:1000B00020893189828993892817390779F0A289A3
:1000C000B389AE0FBF1F8C91228933892F5F3F4FB9
:1000D0002F703327338B228B90E008958FEF9FEFA3
:1000E0000895DC011F96ED91FC9120893189828968
:1000F00093892817390739F082899389E80FF91F06
:10010000808190E008958FEF9FEF0895DC011F96A6
:10011000ED91FC918089918922893389821B930B0F
:100120008F7099270895CF92DF92EF92FF920F93ED
:100130001F93CF93DF936C01EB017B01E40EF51E5F
:1001400010E000E0CE15DF0561F06991D601ED9178
:10015000FC910190F081E02DC6010995080F191F4F
:10016000F1CFC801DF91CF911F910F91FF90EF90D8
:10017000DF90CF9008953FB7F894809183009091DD
:100180008400A0918500B091860022B708B600FED9
:1001900005C02F3F19F00196A11DB11D3FBFBA2F19
:1001A000A92F982F8827BC01CD01620F711D811DD9
:1001B000911D43E0660F771F881F991F4A95D1F75D
:1001C00008951F920F920FB60F9211242F933F9311
:1001D0004F935F937F938F939F93AF93BF93EF93CF
:1001E000FF934091A70020E038E035D034D033D0E1
:1001F00032D031D0889479B3742309F008942795CC
:100200003A9509F0F3CF27D026D0E091AA00F091DB
:10021000AB008089918901968F7099274289538913
:100220008417950739F0A089B189AE0FBF1F2C93B1
:10023000918B808B449AFF91EF91BF91AF919F91E9
:100240008F917F915F914F913F912F910F900FBEB2
:100250000F901F9018958091AC00982F9A95F1F708
:1002600008951F920F920FB60F9211242F933F9370
:100270008F939F93AF93BF9380917F009091800065
:10028000A0918100B091820030917E0026E0230F82
:100290002D3768F129E8230F0396A11DB11D209386
:1002A0007E0080937F0090938000A0938100B093A4
:1002B00082008091830090918400A0918500B0918C
:1002C00086000196A11DB11D809383009093840048
:1002D000A0938500B0938600BF91AF919F918F91BD
:1002E0003F912F910F900FBE0F901F90189502967F
:1002F000A11DB11DD4CF83E080BF83BF789499B78F
:10030000916099BF8FBD8EBD86E886B982E08093EB
:10031000AC004398469A4798419A409A8AB32091F4
:10032000A700922F909598239ABB8BB3822B8BBBFF
:100330009AB32091A800922B9ABB8BB3822B8BBBD4
:10034000449A439A4CE050E060E770E08BE990E01B
:10035000EADE6DE08BE990E08BDE6AE08BE990E00D
:1003600087DE09DFEB0188EEC82E83E0D82EE12C72
:10037000F12C01DF6C1B7D0B683E734068F0C114EB
:10038000D104E104F104F1F281E0C81AD108E108D6
:10039000F108C851DC4FEDCFC114D104E104F104E0
:1003A00041F7D0CFEBE9F0E01382128288EE93E0C0
:1003B000A0E0B0E084839583A683B78384E690E0D1
:1003C0009183808387E890E0908B878780E28487A1
:1003D00080E185878FEE8687118A0895EE0FFF1FD3
:0C03E0000590F491E02D0994F894FFCFF3
:1003EC0000000000380093008600540071003700B4
:0E03FC0048656C6C6F20576F726C64210000B6
:00000001FF
